{
  "contractName": "InstaAccount",
  "abi": [
    {
      "inputs": [
        {
          "internalType": "string",
          "name": "n",
          "type": "string"
        },
        {
          "internalType": "address",
          "name": "a",
          "type": "address"
        }
      ],
      "payable": false,
      "stateMutability": "nonpayable",
      "type": "constructor"
    },
    {
      "constant": true,
      "inputs": [
        {
          "internalType": "uint256",
          "name": "",
          "type": "uint256"
        }
      ],
      "name": "followers",
      "outputs": [
        {
          "internalType": "address",
          "name": "",
          "type": "address"
        }
      ],
      "payable": false,
      "stateMutability": "view",
      "type": "function"
    },
    {
      "constant": true,
      "inputs": [
        {
          "internalType": "uint256",
          "name": "",
          "type": "uint256"
        }
      ],
      "name": "following",
      "outputs": [
        {
          "internalType": "address",
          "name": "",
          "type": "address"
        }
      ],
      "payable": false,
      "stateMutability": "view",
      "type": "function"
    },
    {
      "constant": true,
      "inputs": [],
      "name": "p_count",
      "outputs": [
        {
          "internalType": "uint256",
          "name": "",
          "type": "uint256"
        }
      ],
      "payable": false,
      "stateMutability": "view",
      "type": "function"
    },
    {
      "constant": true,
      "inputs": [],
      "name": "u_addr",
      "outputs": [
        {
          "internalType": "address",
          "name": "",
          "type": "address"
        }
      ],
      "payable": false,
      "stateMutability": "view",
      "type": "function"
    },
    {
      "constant": true,
      "inputs": [],
      "name": "u_name",
      "outputs": [
        {
          "internalType": "string",
          "name": "",
          "type": "string"
        }
      ],
      "payable": false,
      "stateMutability": "view",
      "type": "function"
    },
    {
      "constant": true,
      "inputs": [],
      "name": "getDetails",
      "outputs": [
        {
          "internalType": "string",
          "name": "",
          "type": "string"
        }
      ],
      "payable": false,
      "stateMutability": "view",
      "type": "function"
    },
    {
      "constant": false,
      "inputs": [
        {
          "internalType": "string",
          "name": "tag",
          "type": "string"
        },
        {
          "internalType": "string",
          "name": "hash",
          "type": "string"
        }
      ],
      "name": "post",
      "outputs": [
        {
          "internalType": "uint256",
          "name": "",
          "type": "uint256"
        }
      ],
      "payable": false,
      "stateMutability": "nonpayable",
      "type": "function"
    },
    {
      "constant": true,
      "inputs": [
        {
          "internalType": "uint256",
          "name": "id",
          "type": "uint256"
        }
      ],
      "name": "getPost",
      "outputs": [
        {
          "internalType": "string",
          "name": "",
          "type": "string"
        },
        {
          "internalType": "string",
          "name": "",
          "type": "string"
        },
        {
          "internalType": "address[]",
          "name": "",
          "type": "address[]"
        }
      ],
      "payable": false,
      "stateMutability": "view",
      "type": "function"
    },
    {
      "constant": false,
      "inputs": [
        {
          "internalType": "address",
          "name": "addr",
          "type": "address"
        },
        {
          "internalType": "uint256",
          "name": "id",
          "type": "uint256"
        }
      ],
      "name": "toggleLike",
      "outputs": [],
      "payable": false,
      "stateMutability": "nonpayable",
      "type": "function"
    },
    {
      "constant": false,
      "inputs": [
        {
          "internalType": "uint256",
          "name": "id",
          "type": "uint256"
        },
        {
          "internalType": "string",
          "name": "tag",
          "type": "string"
        }
      ],
      "name": "editTag",
      "outputs": [],
      "payable": false,
      "stateMutability": "nonpayable",
      "type": "function"
    },
    {
      "constant": false,
      "inputs": [
        {
          "internalType": "uint256",
          "name": "id",
          "type": "uint256"
        }
      ],
      "name": "deletePost",
      "outputs": [],
      "payable": false,
      "stateMutability": "nonpayable",
      "type": "function"
    },
    {
      "constant": false,
      "inputs": [
        {
          "internalType": "address",
          "name": "addr",
          "type": "address"
        }
      ],
      "name": "addfollower",
      "outputs": [],
      "payable": false,
      "stateMutability": "nonpayable",
      "type": "function"
    },
    {
      "constant": false,
      "inputs": [
        {
          "internalType": "address",
          "name": "addr",
          "type": "address"
        }
      ],
      "name": "remfollower",
      "outputs": [],
      "payable": false,
      "stateMutability": "nonpayable",
      "type": "function"
    },
    {
      "constant": false,
      "inputs": [
        {
          "internalType": "address",
          "name": "addr",
          "type": "address"
        }
      ],
      "name": "remfollowing",
      "outputs": [],
      "payable": false,
      "stateMutability": "nonpayable",
      "type": "function"
    },
    {
      "constant": true,
      "inputs": [],
      "name": "getfollowers",
      "outputs": [
        {
          "internalType": "address[]",
          "name": "",
          "type": "address[]"
        }
      ],
      "payable": false,
      "stateMutability": "view",
      "type": "function"
    },
    {
      "constant": false,
      "inputs": [
        {
          "internalType": "address",
          "name": "addr",
          "type": "address"
        }
      ],
      "name": "addfollowing",
      "outputs": [],
      "payable": false,
      "stateMutability": "nonpayable",
      "type": "function"
    },
    {
      "constant": true,
      "inputs": [],
      "name": "getfollowing",
      "outputs": [
        {
          "internalType": "address[]",
          "name": "",
          "type": "address[]"
        }
      ],
      "payable": false,
      "stateMutability": "view",
      "type": "function"
    },
    {
      "constant": true,
      "inputs": [],
      "name": "getAllPost",
      "outputs": [
        {
          "internalType": "string[]",
          "name": "",
          "type": "string[]"
        },
        {
          "internalType": "string[]",
          "name": "",
          "type": "string[]"
        }
      ],
      "payable": false,
      "stateMutability": "view",
      "type": "function"
    }
  ],
  "bytecode": "0x60806040523480156200001157600080fd5b5060405162002811380380620028118339818101604052620000379190810190620001fc565b80600160006101000a81548173ffffffffffffffffffffffffffffffffffffffff021916908373ffffffffffffffffffffffffffffffffffffffff160217905550816000908051906020019062000090929190620000da565b5033600460006101000a81548173ffffffffffffffffffffffffffffffffffffffff021916908373ffffffffffffffffffffffffffffffffffffffff160217905550505062000335565b828054600181600116156101000203166002900490600052602060002090601f016020900481019282601f106200011d57805160ff19168380011785556200014e565b828001600101855582156200014e579182015b828111156200014d57825182559160200191906001019062000130565b5b5090506200015d919062000161565b5090565b6200018691905b808211156200018257600081600090555060010162000168565b5090565b90565b6000815190506200019a816200031b565b92915050565b600082601f830112620001b257600080fd5b8151620001c9620001c38262000284565b62000256565b91508082526020830160208301858383011115620001e657600080fd5b620001f3838284620002e5565b50505092915050565b600080604083850312156200021057600080fd5b600083015167ffffffffffffffff8111156200022b57600080fd5b6200023985828601620001a0565b92505060206200024c8582860162000189565b9150509250929050565b6000604051905081810181811067ffffffffffffffff821117156200027a57600080fd5b8060405250919050565b600067ffffffffffffffff8211156200029c57600080fd5b601f19601f8301169050602081019050919050565b6000620002be82620002c5565b9050919050565b600073ffffffffffffffffffffffffffffffffffffffff82169050919050565b60005b8381101562000305578082015181840152602081019050620002e8565b8381111562000315576000848401525b50505050565b6200032681620002b1565b81146200033257600080fd5b50565b6124cc80620003456000396000f3fe608060405234801561001057600080fd5b50600436106101165760003560e01c80636e767f93116100a2578063b95daaa411610071578063b95daaa4146102e1578063da7d9d10146102fd578063e32442cd1461031c578063f9a5283814610338578063fbbf93a01461035657610116565b80636e767f931461026f578063703350981461028b57806372704eef146102a9578063998bd206146102c557610116565b80631abc901f116100e95780631abc901f146101a157806328316f94146101d1578063349df030146101ef5780633f32a0d11461020d57806340731c241461023d57610116565b8063094cd5ee1461011b57806309f0225f146101375780630ae1b13d1461015557806317bb08c314610185575b600080fd5b61013560048036036101309190810190611e96565b610374565b005b61013f6104fb565b60405161014c919061216a565b60405180910390f35b61016f600480360361016a9190810190611e2a565b610521565b60405161017c91906122ae565b60405180910390f35b61019f600480360361019a9190810190611dee565b610628565b005b6101bb60048036036101b69190810190611e96565b610947565b6040516101c8919061216a565b60405180910390f35b6101d9610983565b6040516101e69190612185565b60405180910390f35b6101f7610aa1565b60405161020491906121de565b60405180910390f35b61022760048036036102229190810190611e96565b610b3f565b604051610234919061216a565b60405180910390f35b61025760048036036102529190810190611e96565b610b7b565b60405161026693929190612222565b60405180910390f35b61028960048036036102849190810190611dc5565b610e1f565b005b610293610ffb565b6040516102a091906122ae565b60405180910390f35b6102c360048036036102be9190810190611dc5565b611001565b005b6102df60048036036102da9190810190611dc5565b61118b565b005b6102fb60048036036102f69190810190611ebf565b611315565b005b61030561147a565b6040516103139291906121a7565b60405180910390f35b61033660048036036103319190810190611dc5565b6117ae565b005b610340611991565b60405161034d9190612185565b60405180910390f35b61035e611aaf565b60405161036b9190612200565b60405180910390f35b600460009054906101000a900473ffffffffffffffffffffffffffffffffffffffff1673ffffffffffffffffffffffffffffffffffffffff163373ffffffffffffffffffffffffffffffffffffffff1614610404576040517f08c379a00000000000000000000000000000000000000000000000000000000081526004016103fb9061226e565b60405180910390fd5b8060006005600083815260200190815260200160002060010180546001816001161561010002031660029004905014158061046a575060006005600083815260200190815260200160002060020180546001816001161561010002031660029004905014155b6104a9576040517f08c379a00000000000000000000000000000000000000000000000000000000081526004016104a09061226e565b60405180910390fd5b600560008381526020019081526020016000206000808201600090556001820160006104d59190611be1565b6002820160006104e59190611be1565b6003820160006104f59190611c29565b50505050565b600160009054906101000a900473ffffffffffffffffffffffffffffffffffffffff1681565b6000600460009054906101000a900473ffffffffffffffffffffffffffffffffffffffff1673ffffffffffffffffffffffffffffffffffffffff163373ffffffffffffffffffffffffffffffffffffffff16146105b3576040517f08c379a00000000000000000000000000000000000000000000000000000000081526004016105aa9061226e565b60405180910390fd5b600160066000828254019250508190555060006005600060065481526020019081526020016000209050600654816000018190555083816001019080519060200190610600929190611c4a565b5082816002019080519060200190610619929190611c4a565b50806000015491505092915050565b600460009054906101000a900473ffffffffffffffffffffffffffffffffffffffff1673ffffffffffffffffffffffffffffffffffffffff163373ffffffffffffffffffffffffffffffffffffffff16146106b8576040517f08c379a00000000000000000000000000000000000000000000000000000000081526004016106af9061226e565b60405180910390fd5b8060006005600083815260200190815260200160002060010180546001816001161561010002031660029004905014158061071e575060006005600083815260200190815260200160002060020180546001816001161561010002031660029004905014155b61075d576040517f08c379a00000000000000000000000000000000000000000000000000000000081526004016107549061226e565b60405180910390fd5b6000809050600060056000858152602001908152602001600020600301905060008090505b81805490508110156108b9578573ffffffffffffffffffffffffffffffffffffffff168282815481106107b157fe5b9060005260206000200160009054906101000a900473ffffffffffffffffffffffffffffffffffffffff1673ffffffffffffffffffffffffffffffffffffffff16141561080157600192506108ac565b82156108ab5760056000868152602001908152602001600020600301818154811061082857fe5b9060005260206000200160009054906101000a900473ffffffffffffffffffffffffffffffffffffffff1682600183038154811061086257fe5b9060005260206000200160006101000a81548173ffffffffffffffffffffffffffffffffffffffff021916908373ffffffffffffffffffffffffffffffffffffffff1602179055505b5b8080600101915050610782565b5081156108da57808054809190600190036108d49190611cca565b50610940565b808590806001815401808255809150509060018203906000526020600020016000909192909190916101000a81548173ffffffffffffffffffffffffffffffffffffffff021916908373ffffffffffffffffffffffffffffffffffffffff160217905550505b5050505050565b6002818154811061095457fe5b906000526020600020016000915054906101000a900473ffffffffffffffffffffffffffffffffffffffff1681565b6060600460009054906101000a900473ffffffffffffffffffffffffffffffffffffffff1673ffffffffffffffffffffffffffffffffffffffff163373ffffffffffffffffffffffffffffffffffffffff1614610a15576040517f08c379a0000000000000000000000000000000000000000000000000000000008152600401610a0c9061226e565b60405180910390fd5b6002805480602002602001604051908101604052809291908181526020018280548015610a9757602002820191906000526020600020905b8160009054906101000a900473ffffffffffffffffffffffffffffffffffffffff1673ffffffffffffffffffffffffffffffffffffffff1681526020019060010190808311610a4d575b5050505050905090565b60008054600181600116156101000203166002900480601f016020809104026020016040519081016040528092919081815260200182805460018160011615610100020316600290048015610b375780601f10610b0c57610100808354040283529160200191610b37565b820191906000526020600020905b815481529060010190602001808311610b1a57829003601f168201915b505050505081565b60038181548110610b4c57fe5b906000526020600020016000915054906101000a900473ffffffffffffffffffffffffffffffffffffffff1681565b6060806060600460009054906101000a900473ffffffffffffffffffffffffffffffffffffffff1673ffffffffffffffffffffffffffffffffffffffff163373ffffffffffffffffffffffffffffffffffffffff1614610c10576040517f08c379a0000000000000000000000000000000000000000000000000000000008152600401610c079061226e565b60405180910390fd5b600560008581526020019081526020016000206001016005600086815260200190815260200160002060020160056000878152602001908152602001600020600301828054600181600116156101000203166002900480601f016020809104026020016040519081016040528092919081815260200182805460018160011615610100020316600290048015610ce75780601f10610cbc57610100808354040283529160200191610ce7565b820191906000526020600020905b815481529060010190602001808311610cca57829003601f168201915b50505050509250818054600181600116156101000203166002900480601f016020809104026020016040519081016040528092919081815260200182805460018160011615610100020316600290048015610d835780601f10610d5857610100808354040283529160200191610d83565b820191906000526020600020905b815481529060010190602001808311610d6657829003601f168201915b5050505050915080805480602002602001604051908101604052809291908181526020018280548015610e0b57602002820191906000526020600020905b8160009054906101000a900473ffffffffffffffffffffffffffffffffffffffff1673ffffffffffffffffffffffffffffffffffffffff1681526020019060010190808311610dc1575b505050505090509250925092509193909250565b600460009054906101000a900473ffffffffffffffffffffffffffffffffffffffff1673ffffffffffffffffffffffffffffffffffffffff163373ffffffffffffffffffffffffffffffffffffffff1614610eaf576040517f08c379a0000000000000000000000000000000000000000000000000000000008152600401610ea69061226e565b60405180910390fd5b600080905060008090505b600380549050811015610fe0578273ffffffffffffffffffffffffffffffffffffffff1660038281548110610eeb57fe5b9060005260206000200160009054906101000a900473ffffffffffffffffffffffffffffffffffffffff1673ffffffffffffffffffffffffffffffffffffffff161415610f3b5760019150610fd3565b8115610fd25760038181548110610f4e57fe5b9060005260206000200160009054906101000a900473ffffffffffffffffffffffffffffffffffffffff1660036001830381548110610f8957fe5b9060005260206000200160006101000a81548173ffffffffffffffffffffffffffffffffffffffff021916908373ffffffffffffffffffffffffffffffffffffffff1602179055505b5b8080600101915050610eba565b506003805480919060019003610ff69190611cf6565b505050565b60065481565b600460009054906101000a900473ffffffffffffffffffffffffffffffffffffffff1673ffffffffffffffffffffffffffffffffffffffff163373ffffffffffffffffffffffffffffffffffffffff1614611091576040517f08c379a00000000000000000000000000000000000000000000000000000000081526004016110889061226e565b60405180910390fd5b600160009054906101000a900473ffffffffffffffffffffffffffffffffffffffff1673ffffffffffffffffffffffffffffffffffffffff168173ffffffffffffffffffffffffffffffffffffffff161415611122576040517f08c379a00000000000000000000000000000000000000000000000000000000081526004016111199061228e565b60405180910390fd5b60028190806001815401808255809150509060018203906000526020600020016000909192909190916101000a81548173ffffffffffffffffffffffffffffffffffffffff021916908373ffffffffffffffffffffffffffffffffffffffff1602179055505050565b600460009054906101000a900473ffffffffffffffffffffffffffffffffffffffff1673ffffffffffffffffffffffffffffffffffffffff163373ffffffffffffffffffffffffffffffffffffffff161461121b576040517f08c379a00000000000000000000000000000000000000000000000000000000081526004016112129061226e565b60405180910390fd5b600160009054906101000a900473ffffffffffffffffffffffffffffffffffffffff1673ffffffffffffffffffffffffffffffffffffffff168173ffffffffffffffffffffffffffffffffffffffff1614156112ac576040517f08c379a00000000000000000000000000000000000000000000000000000000081526004016112a39061228e565b60405180910390fd5b60038190806001815401808255809150509060018203906000526020600020016000909192909190916101000a81548173ffffffffffffffffffffffffffffffffffffffff021916908373ffffffffffffffffffffffffffffffffffffffff1602179055505050565b600460009054906101000a900473ffffffffffffffffffffffffffffffffffffffff1673ffffffffffffffffffffffffffffffffffffffff163373ffffffffffffffffffffffffffffffffffffffff16146113a5576040517f08c379a000000000000000000000000000000000000000000000000000000000815260040161139c9061226e565b60405180910390fd5b8160006005600083815260200190815260200160002060010180546001816001161561010002031660029004905014158061140b575060006005600083815260200190815260200160002060020180546001816001161561010002031660029004905014155b61144a576040517f08c379a00000000000000000000000000000000000000000000000000000000081526004016114419061226e565b60405180910390fd5b81600560008581526020019081526020016000206001019080519060200190611474929190611c4a565b50505050565b606080600460009054906101000a900473ffffffffffffffffffffffffffffffffffffffff1673ffffffffffffffffffffffffffffffffffffffff163373ffffffffffffffffffffffffffffffffffffffff161461150d576040517f08c379a00000000000000000000000000000000000000000000000000000000081526004016115049061226e565b60405180910390fd5b606060016006540160405190808252806020026020018201604052801561154857816020015b60608152602001906001900390816115335790505b509050606060016006540160405190808252806020026020018201604052801561158657816020015b60608152602001906001900390816115715790505b509050600060065490505b60008111156117a1576000600560008381526020019081526020016000206001018054600181600116156101000203166002900490501480156115fe5750600060056000838152602001908152602001600020600201805460018160011615610100020316600290049050145b1561160857611795565b600560008281526020019081526020016000206001018054600181600116156101000203166002900480601f0160208091040260200160405190810160405280929190818152602001828054600181600116156101000203166002900480156116b25780601f10611687576101008083540402835291602001916116b2565b820191906000526020600020905b81548152906001019060200180831161169557829003601f168201915b50505050508382815181106116c357fe5b6020026020010181905250600560008281526020019081526020016000206002018054600181600116156101000203166002900480601f0160208091040260200160405190810160405280929190818152602001828054600181600116156101000203166002900480156117785780601f1061174d57610100808354040283529160200191611778565b820191906000526020600020905b81548152906001019060200180831161175b57829003601f168201915b505050505082828151811061178957fe5b60200260200101819052505b80600190039050611591565b5081819350935050509091565b600460009054906101000a900473ffffffffffffffffffffffffffffffffffffffff1673ffffffffffffffffffffffffffffffffffffffff163373ffffffffffffffffffffffffffffffffffffffff161461183e576040517f08c379a00000000000000000000000000000000000000000000000000000000081526004016118359061226e565b60405180910390fd5b600080905060008090505b60028054905081101561196f578273ffffffffffffffffffffffffffffffffffffffff166002828154811061187a57fe5b9060005260206000200160009054906101000a900473ffffffffffffffffffffffffffffffffffffffff1673ffffffffffffffffffffffffffffffffffffffff1614156118ca5760019150611962565b811561196157600281815481106118dd57fe5b9060005260206000200160009054906101000a900473ffffffffffffffffffffffffffffffffffffffff166002600183038154811061191857fe5b9060005260206000200160006101000a81548173ffffffffffffffffffffffffffffffffffffffff021916908373ffffffffffffffffffffffffffffffffffffffff1602179055505b5b8080600101915050611849565b50801561198d57600280548091906001900361198b9190611cf6565b505b5050565b6060600460009054906101000a900473ffffffffffffffffffffffffffffffffffffffff1673ffffffffffffffffffffffffffffffffffffffff163373ffffffffffffffffffffffffffffffffffffffff1614611a23576040517f08c379a0000000000000000000000000000000000000000000000000000000008152600401611a1a9061226e565b60405180910390fd5b6003805480602002602001604051908101604052809291908181526020018280548015611aa557602002820191906000526020600020905b8160009054906101000a900473ffffffffffffffffffffffffffffffffffffffff1673ffffffffffffffffffffffffffffffffffffffff1681526020019060010190808311611a5b575b5050505050905090565b6060600460009054906101000a900473ffffffffffffffffffffffffffffffffffffffff1673ffffffffffffffffffffffffffffffffffffffff163373ffffffffffffffffffffffffffffffffffffffff1614611b41576040517f08c379a0000000000000000000000000000000000000000000000000000000008152600401611b389061226e565b60405180910390fd5b60008054600181600116156101000203166002900480601f016020809104026020016040519081016040528092919081815260200182805460018160011615610100020316600290048015611bd75780601f10611bac57610100808354040283529160200191611bd7565b820191906000526020600020905b815481529060010190602001808311611bba57829003601f168201915b5050505050905090565b50805460018160011615610100020316600290046000825580601f10611c075750611c26565b601f016020900490600052602060002090810190611c259190611d22565b5b50565b5080546000825590600052602060002090810190611c479190611d22565b50565b828054600181600116156101000203166002900490600052602060002090601f016020900481019282601f10611c8b57805160ff1916838001178555611cb9565b82800160010185558215611cb9579182015b82811115611cb8578251825591602001919060010190611c9d565b5b509050611cc69190611d22565b5090565b815481835581811115611cf157818360005260206000209182019101611cf09190611d22565b5b505050565b815481835581811115611d1d57818360005260206000209182019101611d1c9190611d22565b5b505050565b611d4491905b80821115611d40576000816000905550600101611d28565b5090565b90565b600081359050611d568161245b565b92915050565b600082601f830112611d6d57600080fd5b8135611d80611d7b826122f6565b6122c9565b91508082526020830160208301858383011115611d9c57600080fd5b611da7838284612408565b50505092915050565b600081359050611dbf81612472565b92915050565b600060208284031215611dd757600080fd5b6000611de584828501611d47565b91505092915050565b60008060408385031215611e0157600080fd5b6000611e0f85828601611d47565b9250506020611e2085828601611db0565b9150509250929050565b60008060408385031215611e3d57600080fd5b600083013567ffffffffffffffff811115611e5757600080fd5b611e6385828601611d5c565b925050602083013567ffffffffffffffff811115611e8057600080fd5b611e8c85828601611d5c565b9150509250929050565b600060208284031215611ea857600080fd5b6000611eb684828501611db0565b91505092915050565b60008060408385031215611ed257600080fd5b6000611ee085828601611db0565b925050602083013567ffffffffffffffff811115611efd57600080fd5b611f0985828601611d5c565b9150509250929050565b6000611f1f8383611f3f565b60208301905092915050565b6000611f378383612069565b905092915050565b611f48816123cc565b82525050565b611f57816123cc565b82525050565b6000611f6882612342565b611f728185612388565b9350611f7d83612322565b8060005b83811015611fae578151611f958882611f13565b9750611fa08361236e565b925050600181019050611f81565b5085935050505092915050565b6000611fc68261234d565b611fd08185612399565b935083602082028501611fe285612332565b8060005b8581101561201e5784840389528151611fff8582611f2b565b945061200a8361237b565b925060208a01995050600181019050611fe6565b50829750879550505050505092915050565b600061203b82612363565b61204581856123bb565b9350612055818560208601612417565b61205e8161244a565b840191505092915050565b600061207482612358565b61207e81856123aa565b935061208e818560208601612417565b6120978161244a565b840191505092915050565b60006120ad82612358565b6120b781856123bb565b93506120c7818560208601612417565b6120d08161244a565b840191505092915050565b60006120e8600c836123bb565b91507f554e415554484f52495a454400000000000000000000000000000000000000006000830152602082019050919050565b60006121286016836123bb565b91507f43414e4e4f5420464f4c4c4f57205553455253454c46000000000000000000006000830152602082019050919050565b612164816123fe565b82525050565b600060208201905061217f6000830184611f4e565b92915050565b6000602082019050818103600083015261219f8184611f5d565b905092915050565b600060408201905081810360008301526121c18185611fbb565b905081810360208301526121d58184611fbb565b90509392505050565b600060208201905081810360008301526121f881846120a2565b905092915050565b6000602082019050818103600083015261221a8184612030565b905092915050565b6000606082019050818103600083015261223c8186612030565b905081810360208301526122508185612030565b905081810360408301526122648184611f5d565b9050949350505050565b60006020820190508181036000830152612287816120db565b9050919050565b600060208201905081810360008301526122a78161211b565b9050919050565b60006020820190506122c3600083018461215b565b92915050565b6000604051905081810181811067ffffffffffffffff821117156122ec57600080fd5b8060405250919050565b600067ffffffffffffffff82111561230d57600080fd5b601f19601f8301169050602081019050919050565b6000819050602082019050919050565b6000819050602082019050919050565b600081519050919050565b600081519050919050565b600081519050919050565b600081519050919050565b6000602082019050919050565b6000602082019050919050565b600082825260208201905092915050565b600082825260208201905092915050565b600082825260208201905092915050565b600082825260208201905092915050565b60006123d7826123de565b9050919050565b600073ffffffffffffffffffffffffffffffffffffffff82169050919050565b6000819050919050565b82818337600083830152505050565b60005b8381101561243557808201518184015260208101905061241a565b83811115612444576000848401525b50505050565b6000601f19601f8301169050919050565b612464816123cc565b811461246f57600080fd5b50565b61247b816123fe565b811461248657600080fd5b5056fea365627a7a723158208d8bdc84c19c4725d187c4293dafa0c1fd977b8578ec6e40caec16470420769a6c6578706572696d656e74616cf564736f6c634300050c0040",
  "source": "pragma solidity ^0.5.0;\npragma experimental ABIEncoderV2;\n\ncontract InstaAccount{\n\n\tstring public u_name;\n\taddress public u_addr;\n\taddress[] public followers;\n\taddress[] public following;\n\t\n\taddress admin;\n\t\n\tstruct Post{\n\t    uint id;\n\t    string tag;\n\t    string hash;\n\t    address[] likes;\n\t}\n\t\n\tmapping(uint=>Post) posts;\n\tuint public p_count;\n\t\n\tmodifier adminCheck(){\n\t    require(msg.sender==admin, 'UNAUTHORIZED');\n\t    _;\n\t}\n\t\n\tmodifier hasPost(uint id){\n\t    require(bytes(posts[id].tag).length!=0 || bytes(posts[id].hash).length!=0, 'UNAUTHORIZED');\n\t    _;\n\t}\n\t\n\tconstructor(string memory n, address a) public {\n\t    u_addr=a;\n\t    u_name=n;\n\t    admin=msg.sender;\n\t}\n\t\n\tfunction getDetails() public view adminCheck() returns(string memory){\n\t    return u_name;\n\t}\n\t\n\tfunction post(string memory tag, string memory hash) public adminCheck() returns(uint){\n\t    p_count+=1;\n\t    Post storage p = posts[p_count];\n\t    p.id=p_count;\n\t    p.tag=tag;\n\t    p.hash=hash;\n\t    return p.id;\n\t}\n\t\n\tfunction getPost(uint id) public view adminCheck() returns(string memory, string memory, address[] memory){\n\t    return (posts[id].tag,posts[id].hash,posts[id].likes);\n\t}\n\t\n// \tfunction like(address addr, uint id) public adminCheck() hasPost(id){\n// \t    posts[id].likes.push(addr);\n// \t}\n\n\tfunction toggleLike(address addr, uint id) public adminCheck() hasPost(id){\n\t\tbool flag=false;\n\t\taddress[] storage likes=posts[id].likes;\n\t\tfor(uint x=0;x<likes.length;x++){\n\t\t\tif(likes[x]==addr)\n\t\t\t\t{flag=true;continue;}\n\t\t\tif(flag)\n\t\t\t\tlikes[x-1]=posts[id].likes[x];\n\t\t}\n\t\tif(flag)\n\t        likes.length--;\n\t    else\n\t        likes.push(addr);\n\t}\n\t\n\tfunction editTag(uint id, string memory tag) public adminCheck() hasPost(id) {\n\t    posts[id].tag=tag;\n\t}\n\t\n\tfunction deletePost(uint id) public adminCheck() hasPost(id) {\n\t    delete posts[id];\n\t}\n\t\n\tfunction addfollower(address addr) public adminCheck(){\n\t    require(addr!=u_addr, 'CANNOT FOLLOW USERSELF');\n\t    followers.push(addr);\n\t}\n\t\n\tfunction remfollower(address addr) public adminCheck(){\n\t\tbool flag=false;\n\t\tfor(uint x=0;x<followers.length;x++){\n\t\t\tif(followers[x]==addr)\n\t\t\t\t{flag=true;continue;}\n\t\t\tif(flag)\n\t\t\t\tfollowers[x-1]=followers[x];\n\t\t}\n\t\tif(flag)\n\t\t    followers.length--;\n\t}\n\n\tfunction remfollowing(address addr) public adminCheck(){\n\t\tbool flag=false;\n\t\tfor(uint x=0;x<following.length;x++){\n\t\t\tif(following[x]==addr)\n\t\t\t\t{flag=true;continue;}\n\t\t\tif(flag)\n\t\t\t\tfollowing[x-1]=following[x];\n\t\t}\n\t\tfollowing.length--;\n\t}\n\n\tfunction getfollowers() public view adminCheck() returns(address[] memory){\n\t    return followers;\n\t}\n\t\n\tfunction addfollowing(address addr) public adminCheck() {\n\t    require(addr!=u_addr, 'CANNOT FOLLOW USERSELF');\n\t    following.push(addr);\n\t}\n\t\n\tfunction getfollowing() public view adminCheck() returns(address[] memory){\n\t    return following;\n\t}\n\t\n\tfunction getAllPost()public view adminCheck() returns(string[] memory, string[] memory){\n\t    string[] memory tag = new string[](p_count+1);\n\t    string[] memory hash = new string[](p_count+1);\n\t    for(uint id=p_count;id>0;--id){\n\t        if(bytes(posts[id].tag).length==0 && bytes(posts[id].hash).length==0)\n\t            continue;\n\t        tag[id] = posts[id].tag;\n\t        hash[id] = posts[id].hash;\n\t    }\n\t    return (tag, hash);\n\t}\n}",
  "sourcePath": "/home/hello/Projects/react/d_insta/contracts/InstaAccount.sol",
  "compiler": {
    "name": "solc",
    "version": "0.5.12+commit.7709ece9.Emscripten.clang"
  },
  "schemaVersion": "3.0.20",
  "updatedAt": "2020-01-24T20:38:36.559Z",
  "devdoc": {
    "methods": {}
  },
  "userdoc": {
    "methods": {}
  }
}