{
  "contractName": "InstaContract",
  "abi": [
    {
      "inputs": [],
      "payable": false,
      "stateMutability": "nonpayable",
      "type": "constructor"
    },
    {
      "anonymous": false,
      "inputs": [
        {
          "indexed": false,
          "internalType": "address",
          "name": "src",
          "type": "address"
        },
        {
          "indexed": true,
          "internalType": "address",
          "name": "target",
          "type": "address"
        }
      ],
      "name": "NewFollower",
      "type": "event"
    },
    {
      "anonymous": false,
      "inputs": [
        {
          "indexed": false,
          "internalType": "address",
          "name": "src",
          "type": "address"
        },
        {
          "indexed": true,
          "internalType": "address",
          "name": "author",
          "type": "address"
        },
        {
          "indexed": false,
          "internalType": "uint256",
          "name": "id",
          "type": "uint256"
        }
      ],
      "name": "NewLike",
      "type": "event"
    },
    {
      "anonymous": false,
      "inputs": [
        {
          "indexed": true,
          "internalType": "address",
          "name": "author",
          "type": "address"
        },
        {
          "indexed": false,
          "internalType": "uint256",
          "name": "id",
          "type": "uint256"
        }
      ],
      "name": "NewPost",
      "type": "event"
    },
    {
      "constant": true,
      "inputs": [],
      "name": "admin",
      "outputs": [
        {
          "internalType": "address",
          "name": "",
          "type": "address"
        }
      ],
      "payable": false,
      "stateMutability": "view",
      "type": "function"
    },
    {
      "constant": true,
      "inputs": [],
      "name": "state",
      "outputs": [
        {
          "internalType": "enum InstaContract.STATE",
          "name": "",
          "type": "uint8"
        }
      ],
      "payable": false,
      "stateMutability": "view",
      "type": "function"
    },
    {
      "constant": true,
      "inputs": [
        {
          "internalType": "string",
          "name": "",
          "type": "string"
        }
      ],
      "name": "userMap",
      "outputs": [
        {
          "internalType": "address",
          "name": "",
          "type": "address"
        }
      ],
      "payable": false,
      "stateMutability": "view",
      "type": "function"
    },
    {
      "constant": false,
      "inputs": [],
      "name": "activate",
      "outputs": [],
      "payable": false,
      "stateMutability": "nonpayable",
      "type": "function"
    },
    {
      "constant": false,
      "inputs": [],
      "name": "deactivate",
      "outputs": [],
      "payable": false,
      "stateMutability": "nonpayable",
      "type": "function"
    },
    {
      "constant": true,
      "inputs": [],
      "name": "getUsers",
      "outputs": [
        {
          "internalType": "string[]",
          "name": "",
          "type": "string[]"
        }
      ],
      "payable": false,
      "stateMutability": "view",
      "type": "function"
    },
    {
      "constant": false,
      "inputs": [
        {
          "internalType": "string",
          "name": "uname",
          "type": "string"
        }
      ],
      "name": "regUser",
      "outputs": [],
      "payable": false,
      "stateMutability": "nonpayable",
      "type": "function"
    },
    {
      "constant": true,
      "inputs": [
        {
          "internalType": "address",
          "name": "addr",
          "type": "address"
        }
      ],
      "name": "getUser",
      "outputs": [
        {
          "internalType": "address",
          "name": "",
          "type": "address"
        },
        {
          "internalType": "string",
          "name": "",
          "type": "string"
        },
        {
          "internalType": "address",
          "name": "",
          "type": "address"
        }
      ],
      "payable": false,
      "stateMutability": "view",
      "type": "function"
    },
    {
      "constant": false,
      "inputs": [
        {
          "internalType": "string",
          "name": "tag",
          "type": "string"
        },
        {
          "internalType": "string",
          "name": "hash",
          "type": "string"
        }
      ],
      "name": "post",
      "outputs": [
        {
          "internalType": "uint256",
          "name": "",
          "type": "uint256"
        }
      ],
      "payable": false,
      "stateMutability": "nonpayable",
      "type": "function"
    },
    {
      "constant": true,
      "inputs": [
        {
          "internalType": "address",
          "name": "addr",
          "type": "address"
        },
        {
          "internalType": "uint256",
          "name": "id",
          "type": "uint256"
        }
      ],
      "name": "getPost",
      "outputs": [
        {
          "internalType": "string",
          "name": "",
          "type": "string"
        },
        {
          "internalType": "string",
          "name": "",
          "type": "string"
        },
        {
          "internalType": "address[]",
          "name": "",
          "type": "address[]"
        }
      ],
      "payable": false,
      "stateMutability": "view",
      "type": "function"
    },
    {
      "constant": false,
      "inputs": [
        {
          "internalType": "uint256",
          "name": "id",
          "type": "uint256"
        },
        {
          "internalType": "string",
          "name": "tag",
          "type": "string"
        }
      ],
      "name": "editTag",
      "outputs": [],
      "payable": false,
      "stateMutability": "nonpayable",
      "type": "function"
    },
    {
      "constant": false,
      "inputs": [
        {
          "internalType": "uint256",
          "name": "id",
          "type": "uint256"
        }
      ],
      "name": "deletePost",
      "outputs": [],
      "payable": false,
      "stateMutability": "nonpayable",
      "type": "function"
    },
    {
      "constant": false,
      "inputs": [
        {
          "internalType": "address",
          "name": "addr",
          "type": "address"
        },
        {
          "internalType": "uint256",
          "name": "id",
          "type": "uint256"
        }
      ],
      "name": "toggleLike",
      "outputs": [],
      "payable": false,
      "stateMutability": "nonpayable",
      "type": "function"
    },
    {
      "constant": false,
      "inputs": [
        {
          "internalType": "address",
          "name": "addr",
          "type": "address"
        }
      ],
      "name": "follow",
      "outputs": [],
      "payable": false,
      "stateMutability": "nonpayable",
      "type": "function"
    },
    {
      "constant": false,
      "inputs": [
        {
          "internalType": "address",
          "name": "addr",
          "type": "address"
        }
      ],
      "name": "unFollow",
      "outputs": [],
      "payable": false,
      "stateMutability": "nonpayable",
      "type": "function"
    },
    {
      "constant": true,
      "inputs": [
        {
          "internalType": "address",
          "name": "addr",
          "type": "address"
        }
      ],
      "name": "getAllPost",
      "outputs": [
        {
          "internalType": "string[]",
          "name": "",
          "type": "string[]"
        },
        {
          "internalType": "string[]",
          "name": "",
          "type": "string[]"
        }
      ],
      "payable": false,
      "stateMutability": "view",
      "type": "function"
    },
    {
      "constant": true,
      "inputs": [
        {
          "internalType": "address",
          "name": "addr",
          "type": "address"
        }
      ],
      "name": "getFollowers",
      "outputs": [
        {
          "internalType": "address[]",
          "name": "",
          "type": "address[]"
        }
      ],
      "payable": false,
      "stateMutability": "view",
      "type": "function"
    },
    {
      "constant": true,
      "inputs": [
        {
          "internalType": "address",
          "name": "addr",
          "type": "address"
        }
      ],
      "name": "getFollowing",
      "outputs": [
        {
          "internalType": "address[]",
          "name": "",
          "type": "address[]"
        }
      ],
      "payable": false,
      "stateMutability": "view",
      "type": "function"
    }
  ],
  "bytecode": "0x608060405234801561001057600080fd5b5033600360006101000a81548173ffffffffffffffffffffffffffffffffffffffff021916908373ffffffffffffffffffffffffffffffffffffffff1602179055506001600360146101000a81548160ff0219169083600181111561007157fe5b0217905550615c21806100856000396000f3fe60806040523480156200001157600080fd5b50600436106200012f5760003560e01c80637ecff11911620000b1578063c19d93fb116200007b578063c19d93fb146200030b578063c2fe2022146200032d578063d8236dff1462000363578063eb15f3801462000399578063f851a44014620003cf576200012f565b80637ecff119146200025c57806393f726851462000294578063a869698314620002cb578063b95daaa414620002eb576200012f565b80630f15f4c011620000ff5780630f15f4c014620001cc57806317bb08c314620001d85780634dbf27cc14620001f857806351b42b0014620002185780636f77926b1462000224576200012f565b8062ce8e3e1462000134578063034889ff1462000156578063094cd5ee14620001765780630ae1b13d1462000196575b600080fd5b6200013e620003f1565b6040516200014d919062002f07565b60405180910390f35b6200017460048036036200016e919081019062002712565b620005b1565b005b6200019460048036036200018e919081019062002a53565b620008a4565b005b620001b46004803603620001ae9190810190620028ac565b62000a4b565b604051620001c39190620030b0565b60405180910390f35b620001d662000c6f565b005b620001f66004803603620001f091908101906200276a565b62000d29565b005b62000216600480360362000210919081019062002712565b62000f4c565b005b620002226200128f565b005b6200024260048036036200023c919081019062002712565b62001349565b604051620002539392919062002e9f565b60405180910390f35b6200027a60048036036200027491908101906200276a565b62001616565b6040516200028b9392919062002ff8565b60405180910390f35b620002b26004803603620002ac919081019062002712565b6200186a565b604051620002c292919062002f2b565b60405180910390f35b620002e96004803603620002e3919081019062002863565b62001aab565b005b62000309600480360362000303919081019062002aab565b62001ce3565b005b6200031562001e90565b60405162000324919062002f66565b60405180910390f35b6200034b600480360362000345919081019062002712565b62001ea3565b6040516200035a919062002ee3565b60405180910390f35b6200038160048036036200037b919081019062002712565b620020e1565b60405162000390919062002ee3565b60405180910390f35b620003b76004803603620003b1919081019062002928565b6200231f565b604051620003c6919062002e38565b60405180910390f35b620003d962002368565b604051620003e8919062002e38565b60405180910390f35b6060600073ffffffffffffffffffffffffffffffffffffffff166000803373ffffffffffffffffffffffffffffffffffffffff1673ffffffffffffffffffffffffffffffffffffffff16815260200190815260200160002060009054906101000a900473ffffffffffffffffffffffffffffffffffffffff1673ffffffffffffffffffffffffffffffffffffffff161415620004c4576040517f08c379a0000000000000000000000000000000000000000000000000000000008152600401620004bb906200308e565b60405180910390fd5b6002805480602002602001604051908101604052809291908181526020016000905b82821015620005a8578382906000526020600020018054600181600116156101000203166002900480601f016020809104026020016040519081016040528092919081815260200182805460018160011615610100020316600290048015620005935780601f10620005675761010080835404028352916020019162000593565b820191906000526020600020905b8154815290600101906020018083116200057557829003601f168201915b505050505081526020019060010190620004e6565b50505050905090565b600073ffffffffffffffffffffffffffffffffffffffff166000803373ffffffffffffffffffffffffffffffffffffffff1673ffffffffffffffffffffffffffffffffffffffff16815260200190815260200160002060009054906101000a900473ffffffffffffffffffffffffffffffffffffffff1673ffffffffffffffffffffffffffffffffffffffff16141562000682576040517f08c379a000000000000000000000000000000000000000000000000000000000815260040162000679906200308e565b60405180910390fd5b60008060008373ffffffffffffffffffffffffffffffffffffffff1673ffffffffffffffffffffffffffffffffffffffff16815260200190815260200160002060009054906101000a900473ffffffffffffffffffffffffffffffffffffffff169050600073ffffffffffffffffffffffffffffffffffffffff168173ffffffffffffffffffffffffffffffffffffffff16141562000758576040517f08c379a00000000000000000000000000000000000000000000000000000000081526004016200074f906200308e565b60405180910390fd5b600081905060008060003373ffffffffffffffffffffffffffffffffffffffff1673ffffffffffffffffffffffffffffffffffffffff16815260200190815260200160002060009054906101000a900473ffffffffffffffffffffffffffffffffffffffff1690508073ffffffffffffffffffffffffffffffffffffffff16636e767f93856040518263ffffffff1660e01b8152600401620007fb919062002e38565b600060405180830381600087803b1580156200081657600080fd5b505af11580156200082b573d6000803e3d6000fd5b505050508173ffffffffffffffffffffffffffffffffffffffff1663e32442cd336040518263ffffffff1660e01b81526004016200086a919062002e55565b600060405180830381600087803b1580156200088557600080fd5b505af11580156200089a573d6000803e3d6000fd5b5050505050505050565b600073ffffffffffffffffffffffffffffffffffffffff166000803373ffffffffffffffffffffffffffffffffffffffff1673ffffffffffffffffffffffffffffffffffffffff16815260200190815260200160002060009054906101000a900473ffffffffffffffffffffffffffffffffffffffff1673ffffffffffffffffffffffffffffffffffffffff16141562000975576040517f08c379a00000000000000000000000000000000000000000000000000000000081526004016200096c906200308e565b60405180910390fd5b60008060003373ffffffffffffffffffffffffffffffffffffffff1673ffffffffffffffffffffffffffffffffffffffff16815260200190815260200160002060009054906101000a900473ffffffffffffffffffffffffffffffffffffffff1690508073ffffffffffffffffffffffffffffffffffffffff1663094cd5ee836040518263ffffffff1660e01b815260040162000a139190620030b0565b600060405180830381600087803b15801562000a2e57600080fd5b505af115801562000a43573d6000803e3d6000fd5b505050505050565b60008073ffffffffffffffffffffffffffffffffffffffff166000803373ffffffffffffffffffffffffffffffffffffffff1673ffffffffffffffffffffffffffffffffffffffff16815260200190815260200160002060009054906101000a900473ffffffffffffffffffffffffffffffffffffffff1673ffffffffffffffffffffffffffffffffffffffff16141562000b1d576040517f08c379a000000000000000000000000000000000000000000000000000000000815260040162000b14906200308e565b60405180910390fd5b60008060003373ffffffffffffffffffffffffffffffffffffffff1673ffffffffffffffffffffffffffffffffffffffff16815260200190815260200160002060009054906101000a900473ffffffffffffffffffffffffffffffffffffffff1690503373ffffffffffffffffffffffffffffffffffffffff167f227d44868fd91794465aa9733e53308aaf7503a80920f790d5060691fe03a3e78273ffffffffffffffffffffffffffffffffffffffff16630ae1b13d898989896040518563ffffffff1660e01b815260040162000bf9949392919062002fb9565b602060405180830381600087803b15801562000c1457600080fd5b505af115801562000c29573d6000803e3d6000fd5b505050506040513d601f19601f8201168201806040525062000c4f919081019062002a7f565b60405162000c5e9190620030b0565b60405180910390a250949350505050565b600360009054906101000a900473ffffffffffffffffffffffffffffffffffffffff1673ffffffffffffffffffffffffffffffffffffffff163373ffffffffffffffffffffffffffffffffffffffff161462000d02576040517f08c379a000000000000000000000000000000000000000000000000000000000815260040162000cf9906200304a565b60405180910390fd5b6000600360146101000a81548160ff0219169083600181111562000d2257fe5b0217905550565b600073ffffffffffffffffffffffffffffffffffffffff166000803373ffffffffffffffffffffffffffffffffffffffff1673ffffffffffffffffffffffffffffffffffffffff16815260200190815260200160002060009054906101000a900473ffffffffffffffffffffffffffffffffffffffff1673ffffffffffffffffffffffffffffffffffffffff16141562000dfa576040517f08c379a000000000000000000000000000000000000000000000000000000000815260040162000df1906200308e565b60405180910390fd5b60008060008473ffffffffffffffffffffffffffffffffffffffff1673ffffffffffffffffffffffffffffffffffffffff16815260200190815260200160002060009054906101000a900473ffffffffffffffffffffffffffffffffffffffff169050600073ffffffffffffffffffffffffffffffffffffffff168173ffffffffffffffffffffffffffffffffffffffff16141562000ed0576040517f08c379a000000000000000000000000000000000000000000000000000000000815260040162000ec7906200308e565b60405180910390fd5b60008190508073ffffffffffffffffffffffffffffffffffffffff166317bb08c333856040518363ffffffff1660e01b815260040162000f1292919062002e72565b600060405180830381600087803b15801562000f2d57600080fd5b505af115801562000f42573d6000803e3d6000fd5b5050505050505050565b600073ffffffffffffffffffffffffffffffffffffffff166000803373ffffffffffffffffffffffffffffffffffffffff1673ffffffffffffffffffffffffffffffffffffffff16815260200190815260200160002060009054906101000a900473ffffffffffffffffffffffffffffffffffffffff1673ffffffffffffffffffffffffffffffffffffffff1614156200101d576040517f08c379a000000000000000000000000000000000000000000000000000000000815260040162001014906200308e565b60405180910390fd5b60008060008373ffffffffffffffffffffffffffffffffffffffff1673ffffffffffffffffffffffffffffffffffffffff16815260200190815260200160002060009054906101000a900473ffffffffffffffffffffffffffffffffffffffff169050600073ffffffffffffffffffffffffffffffffffffffff168173ffffffffffffffffffffffffffffffffffffffff161415620010f3576040517f08c379a0000000000000000000000000000000000000000000000000000000008152600401620010ea906200308e565b60405180910390fd5b600081905060008060003373ffffffffffffffffffffffffffffffffffffffff1673ffffffffffffffffffffffffffffffffffffffff16815260200190815260200160002060009054906101000a900473ffffffffffffffffffffffffffffffffffffffff1690508073ffffffffffffffffffffffffffffffffffffffff1663998bd206856040518263ffffffff1660e01b815260040162001196919062002e38565b600060405180830381600087803b158015620011b157600080fd5b505af1158015620011c6573d6000803e3d6000fd5b505050508173ffffffffffffffffffffffffffffffffffffffff166372704eef336040518263ffffffff1660e01b815260040162001205919062002e55565b600060405180830381600087803b1580156200122057600080fd5b505af115801562001235573d6000803e3d6000fd5b505050508373ffffffffffffffffffffffffffffffffffffffff167fbccc5360a372810af9cf6fa0c5c8a2d354876747aee27b9f37399ec6cd53cf1a3360405162001281919062002e55565b60405180910390a250505050565b600360009054906101000a900473ffffffffffffffffffffffffffffffffffffffff1673ffffffffffffffffffffffffffffffffffffffff163373ffffffffffffffffffffffffffffffffffffffff161462001322576040517f08c379a000000000000000000000000000000000000000000000000000000000815260040162001319906200304a565b60405180910390fd5b6001600360146101000a81548160ff021916908360018111156200134257fe5b0217905550565b6000606060008073ffffffffffffffffffffffffffffffffffffffff166000803373ffffffffffffffffffffffffffffffffffffffff1673ffffffffffffffffffffffffffffffffffffffff16815260200190815260200160002060009054906101000a900473ffffffffffffffffffffffffffffffffffffffff1673ffffffffffffffffffffffffffffffffffffffff1614156200141f576040517f08c379a000000000000000000000000000000000000000000000000000000000815260040162001416906200308e565b60405180910390fd5b60008060008673ffffffffffffffffffffffffffffffffffffffff1673ffffffffffffffffffffffffffffffffffffffff16815260200190815260200160002060009054906101000a900473ffffffffffffffffffffffffffffffffffffffff169050600073ffffffffffffffffffffffffffffffffffffffff168173ffffffffffffffffffffffffffffffffffffffff161415620014f5576040517f08c379a0000000000000000000000000000000000000000000000000000000008152600401620014ec906200308e565b60405180910390fd5b6000819050858173ffffffffffffffffffffffffffffffffffffffff1663349df0306040518163ffffffff1660e01b815260040160006040518083038186803b1580156200154257600080fd5b505afa15801562001557573d6000803e3d6000fd5b505050506040513d6000823e3d601f19601f820116820180604052506200158291908101906200296d565b8273ffffffffffffffffffffffffffffffffffffffff166309f0225f6040518163ffffffff1660e01b815260040160206040518083038186803b158015620015c957600080fd5b505afa158015620015de573d6000803e3d6000fd5b505050506040513d601f19601f820116820180604052506200160491908101906200273e565b81915094509450945050509193909250565b6060806060600073ffffffffffffffffffffffffffffffffffffffff166000803373ffffffffffffffffffffffffffffffffffffffff1673ffffffffffffffffffffffffffffffffffffffff16815260200190815260200160002060009054906101000a900473ffffffffffffffffffffffffffffffffffffffff1673ffffffffffffffffffffffffffffffffffffffff161415620016ec576040517f08c379a0000000000000000000000000000000000000000000000000000000008152600401620016e3906200308e565b60405180910390fd5b60008060008773ffffffffffffffffffffffffffffffffffffffff1673ffffffffffffffffffffffffffffffffffffffff16815260200190815260200160002060009054906101000a900473ffffffffffffffffffffffffffffffffffffffff169050600073ffffffffffffffffffffffffffffffffffffffff168173ffffffffffffffffffffffffffffffffffffffff161415620017c2576040517f08c379a0000000000000000000000000000000000000000000000000000000008152600401620017b9906200308e565b60405180910390fd5b60008190508073ffffffffffffffffffffffffffffffffffffffff166340731c24876040518263ffffffff1660e01b8152600401620018029190620030b0565b60006040518083038186803b1580156200181b57600080fd5b505afa15801562001830573d6000803e3d6000fd5b505050506040513d6000823e3d601f19601f820116820180604052506200185b9190810190620029b2565b94509450945050509250925092565b606080600073ffffffffffffffffffffffffffffffffffffffff166000803373ffffffffffffffffffffffffffffffffffffffff1673ffffffffffffffffffffffffffffffffffffffff16815260200190815260200160002060009054906101000a900473ffffffffffffffffffffffffffffffffffffffff1673ffffffffffffffffffffffffffffffffffffffff1614156200193e576040517f08c379a000000000000000000000000000000000000000000000000000000000815260040162001935906200308e565b60405180910390fd5b60008060008573ffffffffffffffffffffffffffffffffffffffff1673ffffffffffffffffffffffffffffffffffffffff16815260200190815260200160002060009054906101000a900473ffffffffffffffffffffffffffffffffffffffff169050600073ffffffffffffffffffffffffffffffffffffffff168173ffffffffffffffffffffffffffffffffffffffff16141562001a14576040517f08c379a000000000000000000000000000000000000000000000000000000000815260040162001a0b906200308e565b60405180910390fd5b60008190508073ffffffffffffffffffffffffffffffffffffffff1663da7d9d106040518163ffffffff1660e01b815260040160006040518083038186803b15801562001a6057600080fd5b505afa15801562001a75573d6000803e3d6000fd5b505050506040513d6000823e3d601f19601f8201168201806040525062001aa09190810190620027f0565b935093505050915091565b600073ffffffffffffffffffffffffffffffffffffffff166000803373ffffffffffffffffffffffffffffffffffffffff1673ffffffffffffffffffffffffffffffffffffffff16815260200190815260200160002060009054906101000a900473ffffffffffffffffffffffffffffffffffffffff1673ffffffffffffffffffffffffffffffffffffffff161462001b7b576040517f08c379a000000000000000000000000000000000000000000000000000000000815260040162001b72906200306c565b60405180910390fd5b336001838360405162001b9092919062002e1d565b908152602001604051809103902060006101000a81548173ffffffffffffffffffffffffffffffffffffffff021916908373ffffffffffffffffffffffffffffffffffffffff160217905550600282829091806001815401808255809150509060018203906000526020600020016000909192939091929390919290919250919062001c1e9291906200238e565b5050600082823360405162001c339062002415565b62001c419392919062002f83565b604051809103906000f08015801562001c5e573d6000803e3d6000fd5b509050806000803373ffffffffffffffffffffffffffffffffffffffff1673ffffffffffffffffffffffffffffffffffffffff16815260200190815260200160002060006101000a81548173ffffffffffffffffffffffffffffffffffffffff021916908373ffffffffffffffffffffffffffffffffffffffff160217905550505050565b600073ffffffffffffffffffffffffffffffffffffffff166000803373ffffffffffffffffffffffffffffffffffffffff1673ffffffffffffffffffffffffffffffffffffffff16815260200190815260200160002060009054906101000a900473ffffffffffffffffffffffffffffffffffffffff1673ffffffffffffffffffffffffffffffffffffffff16141562001db4576040517f08c379a000000000000000000000000000000000000000000000000000000000815260040162001dab906200308e565b60405180910390fd5b60008060003373ffffffffffffffffffffffffffffffffffffffff1673ffffffffffffffffffffffffffffffffffffffff16815260200190815260200160002060009054906101000a900473ffffffffffffffffffffffffffffffffffffffff1690508073ffffffffffffffffffffffffffffffffffffffff1663b95daaa48585856040518463ffffffff1660e01b815260040162001e5693929190620030cd565b600060405180830381600087803b15801562001e7157600080fd5b505af115801562001e86573d6000803e3d6000fd5b5050505050505050565b600360149054906101000a900460ff1681565b6060600073ffffffffffffffffffffffffffffffffffffffff166000803373ffffffffffffffffffffffffffffffffffffffff1673ffffffffffffffffffffffffffffffffffffffff16815260200190815260200160002060009054906101000a900473ffffffffffffffffffffffffffffffffffffffff1673ffffffffffffffffffffffffffffffffffffffff16141562001f76576040517f08c379a000000000000000000000000000000000000000000000000000000000815260040162001f6d906200308e565b60405180910390fd5b60008060008473ffffffffffffffffffffffffffffffffffffffff1673ffffffffffffffffffffffffffffffffffffffff16815260200190815260200160002060009054906101000a900473ffffffffffffffffffffffffffffffffffffffff169050600073ffffffffffffffffffffffffffffffffffffffff168173ffffffffffffffffffffffffffffffffffffffff1614156200204c576040517f08c379a000000000000000000000000000000000000000000000000000000000815260040162002043906200308e565b60405180910390fd5b60008190508073ffffffffffffffffffffffffffffffffffffffff166328316f946040518163ffffffff1660e01b815260040160006040518083038186803b1580156200209857600080fd5b505afa158015620020ad573d6000803e3d6000fd5b505050506040513d6000823e3d601f19601f82011682018060405250620020d89190810190620027ab565b92505050919050565b6060600073ffffffffffffffffffffffffffffffffffffffff166000803373ffffffffffffffffffffffffffffffffffffffff1673ffffffffffffffffffffffffffffffffffffffff16815260200190815260200160002060009054906101000a900473ffffffffffffffffffffffffffffffffffffffff1673ffffffffffffffffffffffffffffffffffffffff161415620021b4576040517f08c379a0000000000000000000000000000000000000000000000000000000008152600401620021ab906200308e565b60405180910390fd5b60008060008473ffffffffffffffffffffffffffffffffffffffff1673ffffffffffffffffffffffffffffffffffffffff16815260200190815260200160002060009054906101000a900473ffffffffffffffffffffffffffffffffffffffff169050600073ffffffffffffffffffffffffffffffffffffffff168173ffffffffffffffffffffffffffffffffffffffff1614156200228a576040517f08c379a000000000000000000000000000000000000000000000000000000000815260040162002281906200308e565b60405180910390fd5b60008190508073ffffffffffffffffffffffffffffffffffffffff1663f9a528386040518163ffffffff1660e01b815260040160006040518083038186803b158015620022d657600080fd5b505afa158015620022eb573d6000803e3d6000fd5b505050506040513d6000823e3d601f19601f82011682018060405250620023169190810190620027ab565b92505050919050565b6001818051602081018201805184825260208301602085012081835280955050505050506000915054906101000a900473ffffffffffffffffffffffffffffffffffffffff1681565b600360009054906101000a900473ffffffffffffffffffffffffffffffffffffffff1681565b828054600181600116156101000203166002900490600052602060002090601f016020900481019282601f10620023d157803560ff191683800117855562002402565b8280016001018555821562002402579182015b8281111562002401578235825591602001919060010190620023e4565b5b50905062002411919062002423565b5090565b61281180620033ce83390190565b6200244891905b80821115620024445760008160009055506001016200242a565b5090565b90565b6000813590506200245c8162003399565b92915050565b600081519050620024738162003399565b92915050565b600082601f8301126200248b57600080fd5b8151620024a26200249c8262003131565b62003103565b91508181835260208401935060208101905083856020840282011115620024c857600080fd5b60005b83811015620024fc5781620024e1888262002462565b845260208401935060208301925050600181019050620024cb565b5050505092915050565b600082601f8301126200251857600080fd5b81516200252f62002529826200315a565b62003103565b9150818183526020840193506020810190508360005b838110156200257957815186016200255e88826200262c565b84526020840193506020830192505060018101905062002545565b5050505092915050565b60008083601f8401126200259657600080fd5b8235905067ffffffffffffffff811115620025b057600080fd5b602083019150836001820283011115620025c957600080fd5b9250929050565b600082601f830112620025e257600080fd5b8135620025f9620025f38262003183565b62003103565b915080825260208301602083018583830111156200261657600080fd5b6200262383828462003335565b50505092915050565b600082601f8301126200263e57600080fd5b8151620026556200264f8262003183565b62003103565b915080825260208301602083018583830111156200267257600080fd5b6200267f83828462003344565b50505092915050565b600082601f8301126200269a57600080fd5b8151620026b1620026ab82620031b0565b62003103565b91508082526020830160208301858383011115620026ce57600080fd5b620026db83828462003344565b50505092915050565b600081359050620026f581620033b3565b92915050565b6000815190506200270c81620033b3565b92915050565b6000602082840312156200272557600080fd5b600062002735848285016200244b565b91505092915050565b6000602082840312156200275157600080fd5b6000620027618482850162002462565b91505092915050565b600080604083850312156200277e57600080fd5b60006200278e858286016200244b565b9250506020620027a185828601620026e4565b9150509250929050565b600060208284031215620027be57600080fd5b600082015167ffffffffffffffff811115620027d957600080fd5b620027e78482850162002479565b91505092915050565b600080604083850312156200280457600080fd5b600083015167ffffffffffffffff8111156200281f57600080fd5b6200282d8582860162002506565b925050602083015167ffffffffffffffff8111156200284b57600080fd5b620028598582860162002506565b9150509250929050565b600080602083850312156200287757600080fd5b600083013567ffffffffffffffff8111156200289257600080fd5b620028a08582860162002583565b92509250509250929050565b60008060008060408587031215620028c357600080fd5b600085013567ffffffffffffffff811115620028de57600080fd5b620028ec8782880162002583565b9450945050602085013567ffffffffffffffff8111156200290c57600080fd5b6200291a8782880162002583565b925092505092959194509250565b6000602082840312156200293b57600080fd5b600082013567ffffffffffffffff8111156200295657600080fd5b6200296484828501620025d0565b91505092915050565b6000602082840312156200298057600080fd5b600082015167ffffffffffffffff8111156200299b57600080fd5b620029a9848285016200262c565b91505092915050565b600080600060608486031215620029c857600080fd5b600084015167ffffffffffffffff811115620029e357600080fd5b620029f18682870162002688565b935050602084015167ffffffffffffffff81111562002a0f57600080fd5b62002a1d8682870162002688565b925050604084015167ffffffffffffffff81111562002a3b57600080fd5b62002a498682870162002479565b9150509250925092565b60006020828403121562002a6657600080fd5b600062002a7684828501620026e4565b91505092915050565b60006020828403121562002a9257600080fd5b600062002aa284828501620026fb565b91505092915050565b60008060006040848603121562002ac157600080fd5b600062002ad186828701620026e4565b935050602084013567ffffffffffffffff81111562002aef57600080fd5b62002afd8682870162002583565b92509250509250925092565b600062002b17838362002b4a565b60208301905092915050565b600062002b31838362002d05565b905092915050565b62002b4481620032e5565b82525050565b62002b558162003292565b82525050565b62002b668162003292565b82525050565b600062002b7982620031fd565b62002b85818562003243565b935062002b9283620031dd565b8060005b8381101562002bc957815162002bad888262002b09565b975062002bba8362003229565b92505060018101905062002b96565b5085935050505092915050565b600062002be38262003208565b62002bef818562003254565b93508360208202850162002c0385620031ed565b8060005b8581101562002c45578484038952815162002c23858262002b23565b945062002c308362003236565b925060208a0199505060018101905062002c07565b50829750879550505050505092915050565b62002c6281620032f9565b82525050565b600062002c76838562003276565b935062002c8583858462003335565b62002c90836200337a565b840190509392505050565b600062002ca9838562003287565b935062002cb883858462003335565b82840190509392505050565b600062002cd1826200321e565b62002cdd818562003276565b935062002cef81856020860162003344565b62002cfa816200337a565b840191505092915050565b600062002d128262003213565b62002d1e818562003265565b935062002d3081856020860162003344565b62002d3b816200337a565b840191505092915050565b600062002d55600c8362003276565b91507f554e415554484f52495a454400000000000000000000000000000000000000006000830152602082019050919050565b600062002d97600e8362003276565b91507f616c7265616479206578697374730000000000000000000000000000000000006000830152602082019050919050565b600062002dd9600a8362003276565b91507f6e6f206163636f756e74000000000000000000000000000000000000000000006000830152602082019050919050565b62002e1781620032db565b82525050565b600062002e2c82848662002c9b565b91508190509392505050565b600060208201905062002e4f600083018462002b5b565b92915050565b600060208201905062002e6c600083018462002b39565b92915050565b600060408201905062002e89600083018562002b39565b62002e98602083018462002e0c565b9392505050565b600060608201905062002eb6600083018662002b5b565b818103602083015262002eca818562002cc4565b905062002edb604083018462002b5b565b949350505050565b6000602082019050818103600083015262002eff818462002b6c565b905092915050565b6000602082019050818103600083015262002f23818462002bd6565b905092915050565b6000604082019050818103600083015262002f47818562002bd6565b9050818103602083015262002f5d818462002bd6565b90509392505050565b600060208201905062002f7d600083018462002c57565b92915050565b6000604082019050818103600083015262002fa081858762002c68565b905062002fb1602083018462002b39565b949350505050565b6000604082019050818103600083015262002fd681868862002c68565b9050818103602083015262002fed81848662002c68565b905095945050505050565b6000606082019050818103600083015262003014818662002cc4565b905081810360208301526200302a818562002cc4565b9050818103604083015262003040818462002b6c565b9050949350505050565b60006020820190508181036000830152620030658162002d46565b9050919050565b60006020820190508181036000830152620030878162002d88565b9050919050565b60006020820190508181036000830152620030a98162002dca565b9050919050565b6000602082019050620030c7600083018462002e0c565b92915050565b6000604082019050620030e4600083018662002e0c565b8181036020830152620030f981848662002c68565b9050949350505050565b6000604051905081810181811067ffffffffffffffff821117156200312757600080fd5b8060405250919050565b600067ffffffffffffffff8211156200314957600080fd5b602082029050602081019050919050565b600067ffffffffffffffff8211156200317257600080fd5b602082029050602081019050919050565b600067ffffffffffffffff8211156200319b57600080fd5b601f19601f8301169050602081019050919050565b600067ffffffffffffffff821115620031c857600080fd5b601f19601f8301169050602081019050919050565b6000819050602082019050919050565b6000819050602082019050919050565b600081519050919050565b600081519050919050565b600081519050919050565b600081519050919050565b6000602082019050919050565b6000602082019050919050565b600082825260208201905092915050565b600082825260208201905092915050565b600082825260208201905092915050565b600082825260208201905092915050565b600081905092915050565b60006200329f82620032bb565b9050919050565b6000819050620032b6826200338b565b919050565b600073ffffffffffffffffffffffffffffffffffffffff82169050919050565b6000819050919050565b6000620032f2826200330d565b9050919050565b60006200330682620032a6565b9050919050565b60006200331a8262003321565b9050919050565b60006200332e82620032bb565b9050919050565b82818337600083830152505050565b60005b838110156200336457808201518184015260208101905062003347565b8381111562003374576000848401525b50505050565b6000601f19601f8301169050919050565b600281106200339657fe5b50565b620033a48162003292565b8114620033b057600080fd5b50565b620033be81620032db565b8114620033ca57600080fd5b5056fe60806040523480156200001157600080fd5b5060405162002811380380620028118339818101604052620000379190810190620001fc565b80600160006101000a81548173ffffffffffffffffffffffffffffffffffffffff021916908373ffffffffffffffffffffffffffffffffffffffff160217905550816000908051906020019062000090929190620000da565b5033600460006101000a81548173ffffffffffffffffffffffffffffffffffffffff021916908373ffffffffffffffffffffffffffffffffffffffff160217905550505062000335565b828054600181600116156101000203166002900490600052602060002090601f016020900481019282601f106200011d57805160ff19168380011785556200014e565b828001600101855582156200014e579182015b828111156200014d57825182559160200191906001019062000130565b5b5090506200015d919062000161565b5090565b6200018691905b808211156200018257600081600090555060010162000168565b5090565b90565b6000815190506200019a816200031b565b92915050565b600082601f830112620001b257600080fd5b8151620001c9620001c38262000284565b62000256565b91508082526020830160208301858383011115620001e657600080fd5b620001f3838284620002e5565b50505092915050565b600080604083850312156200021057600080fd5b600083015167ffffffffffffffff8111156200022b57600080fd5b6200023985828601620001a0565b92505060206200024c8582860162000189565b9150509250929050565b6000604051905081810181811067ffffffffffffffff821117156200027a57600080fd5b8060405250919050565b600067ffffffffffffffff8211156200029c57600080fd5b601f19601f8301169050602081019050919050565b6000620002be82620002c5565b9050919050565b600073ffffffffffffffffffffffffffffffffffffffff82169050919050565b60005b8381101562000305578082015181840152602081019050620002e8565b8381111562000315576000848401525b50505050565b6200032681620002b1565b81146200033257600080fd5b50565b6124cc80620003456000396000f3fe608060405234801561001057600080fd5b50600436106101165760003560e01c80636e767f93116100a2578063b95daaa411610071578063b95daaa4146102e1578063da7d9d10146102fd578063e32442cd1461031c578063f9a5283814610338578063fbbf93a01461035657610116565b80636e767f931461026f578063703350981461028b57806372704eef146102a9578063998bd206146102c557610116565b80631abc901f116100e95780631abc901f146101a157806328316f94146101d1578063349df030146101ef5780633f32a0d11461020d57806340731c241461023d57610116565b8063094cd5ee1461011b57806309f0225f146101375780630ae1b13d1461015557806317bb08c314610185575b600080fd5b61013560048036036101309190810190611e96565b610374565b005b61013f6104fb565b60405161014c919061216a565b60405180910390f35b61016f600480360361016a9190810190611e2a565b610521565b60405161017c91906122ae565b60405180910390f35b61019f600480360361019a9190810190611dee565b610628565b005b6101bb60048036036101b69190810190611e96565b610947565b6040516101c8919061216a565b60405180910390f35b6101d9610983565b6040516101e69190612185565b60405180910390f35b6101f7610aa1565b60405161020491906121de565b60405180910390f35b61022760048036036102229190810190611e96565b610b3f565b604051610234919061216a565b60405180910390f35b61025760048036036102529190810190611e96565b610b7b565b60405161026693929190612222565b60405180910390f35b61028960048036036102849190810190611dc5565b610e1f565b005b610293610ffb565b6040516102a091906122ae565b60405180910390f35b6102c360048036036102be9190810190611dc5565b611001565b005b6102df60048036036102da9190810190611dc5565b61118b565b005b6102fb60048036036102f69190810190611ebf565b611315565b005b61030561147a565b6040516103139291906121a7565b60405180910390f35b61033660048036036103319190810190611dc5565b6117ae565b005b610340611991565b60405161034d9190612185565b60405180910390f35b61035e611aaf565b60405161036b9190612200565b60405180910390f35b600460009054906101000a900473ffffffffffffffffffffffffffffffffffffffff1673ffffffffffffffffffffffffffffffffffffffff163373ffffffffffffffffffffffffffffffffffffffff1614610404576040517f08c379a00000000000000000000000000000000000000000000000000000000081526004016103fb9061226e565b60405180910390fd5b8060006005600083815260200190815260200160002060010180546001816001161561010002031660029004905014158061046a575060006005600083815260200190815260200160002060020180546001816001161561010002031660029004905014155b6104a9576040517f08c379a00000000000000000000000000000000000000000000000000000000081526004016104a09061226e565b60405180910390fd5b600560008381526020019081526020016000206000808201600090556001820160006104d59190611be1565b6002820160006104e59190611be1565b6003820160006104f59190611c29565b50505050565b600160009054906101000a900473ffffffffffffffffffffffffffffffffffffffff1681565b6000600460009054906101000a900473ffffffffffffffffffffffffffffffffffffffff1673ffffffffffffffffffffffffffffffffffffffff163373ffffffffffffffffffffffffffffffffffffffff16146105b3576040517f08c379a00000000000000000000000000000000000000000000000000000000081526004016105aa9061226e565b60405180910390fd5b600160066000828254019250508190555060006005600060065481526020019081526020016000209050600654816000018190555083816001019080519060200190610600929190611c4a565b5082816002019080519060200190610619929190611c4a565b50806000015491505092915050565b600460009054906101000a900473ffffffffffffffffffffffffffffffffffffffff1673ffffffffffffffffffffffffffffffffffffffff163373ffffffffffffffffffffffffffffffffffffffff16146106b8576040517f08c379a00000000000000000000000000000000000000000000000000000000081526004016106af9061226e565b60405180910390fd5b8060006005600083815260200190815260200160002060010180546001816001161561010002031660029004905014158061071e575060006005600083815260200190815260200160002060020180546001816001161561010002031660029004905014155b61075d576040517f08c379a00000000000000000000000000000000000000000000000000000000081526004016107549061226e565b60405180910390fd5b6000809050600060056000858152602001908152602001600020600301905060008090505b81805490508110156108b9578573ffffffffffffffffffffffffffffffffffffffff168282815481106107b157fe5b9060005260206000200160009054906101000a900473ffffffffffffffffffffffffffffffffffffffff1673ffffffffffffffffffffffffffffffffffffffff16141561080157600192506108ac565b82156108ab5760056000868152602001908152602001600020600301818154811061082857fe5b9060005260206000200160009054906101000a900473ffffffffffffffffffffffffffffffffffffffff1682600183038154811061086257fe5b9060005260206000200160006101000a81548173ffffffffffffffffffffffffffffffffffffffff021916908373ffffffffffffffffffffffffffffffffffffffff1602179055505b5b8080600101915050610782565b5081156108da57808054809190600190036108d49190611cca565b50610940565b808590806001815401808255809150509060018203906000526020600020016000909192909190916101000a81548173ffffffffffffffffffffffffffffffffffffffff021916908373ffffffffffffffffffffffffffffffffffffffff160217905550505b5050505050565b6002818154811061095457fe5b906000526020600020016000915054906101000a900473ffffffffffffffffffffffffffffffffffffffff1681565b6060600460009054906101000a900473ffffffffffffffffffffffffffffffffffffffff1673ffffffffffffffffffffffffffffffffffffffff163373ffffffffffffffffffffffffffffffffffffffff1614610a15576040517f08c379a0000000000000000000000000000000000000000000000000000000008152600401610a0c9061226e565b60405180910390fd5b6002805480602002602001604051908101604052809291908181526020018280548015610a9757602002820191906000526020600020905b8160009054906101000a900473ffffffffffffffffffffffffffffffffffffffff1673ffffffffffffffffffffffffffffffffffffffff1681526020019060010190808311610a4d575b5050505050905090565b60008054600181600116156101000203166002900480601f016020809104026020016040519081016040528092919081815260200182805460018160011615610100020316600290048015610b375780601f10610b0c57610100808354040283529160200191610b37565b820191906000526020600020905b815481529060010190602001808311610b1a57829003601f168201915b505050505081565b60038181548110610b4c57fe5b906000526020600020016000915054906101000a900473ffffffffffffffffffffffffffffffffffffffff1681565b6060806060600460009054906101000a900473ffffffffffffffffffffffffffffffffffffffff1673ffffffffffffffffffffffffffffffffffffffff163373ffffffffffffffffffffffffffffffffffffffff1614610c10576040517f08c379a0000000000000000000000000000000000000000000000000000000008152600401610c079061226e565b60405180910390fd5b600560008581526020019081526020016000206001016005600086815260200190815260200160002060020160056000878152602001908152602001600020600301828054600181600116156101000203166002900480601f016020809104026020016040519081016040528092919081815260200182805460018160011615610100020316600290048015610ce75780601f10610cbc57610100808354040283529160200191610ce7565b820191906000526020600020905b815481529060010190602001808311610cca57829003601f168201915b50505050509250818054600181600116156101000203166002900480601f016020809104026020016040519081016040528092919081815260200182805460018160011615610100020316600290048015610d835780601f10610d5857610100808354040283529160200191610d83565b820191906000526020600020905b815481529060010190602001808311610d6657829003601f168201915b5050505050915080805480602002602001604051908101604052809291908181526020018280548015610e0b57602002820191906000526020600020905b8160009054906101000a900473ffffffffffffffffffffffffffffffffffffffff1673ffffffffffffffffffffffffffffffffffffffff1681526020019060010190808311610dc1575b505050505090509250925092509193909250565b600460009054906101000a900473ffffffffffffffffffffffffffffffffffffffff1673ffffffffffffffffffffffffffffffffffffffff163373ffffffffffffffffffffffffffffffffffffffff1614610eaf576040517f08c379a0000000000000000000000000000000000000000000000000000000008152600401610ea69061226e565b60405180910390fd5b600080905060008090505b600380549050811015610fe0578273ffffffffffffffffffffffffffffffffffffffff1660038281548110610eeb57fe5b9060005260206000200160009054906101000a900473ffffffffffffffffffffffffffffffffffffffff1673ffffffffffffffffffffffffffffffffffffffff161415610f3b5760019150610fd3565b8115610fd25760038181548110610f4e57fe5b9060005260206000200160009054906101000a900473ffffffffffffffffffffffffffffffffffffffff1660036001830381548110610f8957fe5b9060005260206000200160006101000a81548173ffffffffffffffffffffffffffffffffffffffff021916908373ffffffffffffffffffffffffffffffffffffffff1602179055505b5b8080600101915050610eba565b506003805480919060019003610ff69190611cf6565b505050565b60065481565b600460009054906101000a900473ffffffffffffffffffffffffffffffffffffffff1673ffffffffffffffffffffffffffffffffffffffff163373ffffffffffffffffffffffffffffffffffffffff1614611091576040517f08c379a00000000000000000000000000000000000000000000000000000000081526004016110889061226e565b60405180910390fd5b600160009054906101000a900473ffffffffffffffffffffffffffffffffffffffff1673ffffffffffffffffffffffffffffffffffffffff168173ffffffffffffffffffffffffffffffffffffffff161415611122576040517f08c379a00000000000000000000000000000000000000000000000000000000081526004016111199061228e565b60405180910390fd5b60028190806001815401808255809150509060018203906000526020600020016000909192909190916101000a81548173ffffffffffffffffffffffffffffffffffffffff021916908373ffffffffffffffffffffffffffffffffffffffff1602179055505050565b600460009054906101000a900473ffffffffffffffffffffffffffffffffffffffff1673ffffffffffffffffffffffffffffffffffffffff163373ffffffffffffffffffffffffffffffffffffffff161461121b576040517f08c379a00000000000000000000000000000000000000000000000000000000081526004016112129061226e565b60405180910390fd5b600160009054906101000a900473ffffffffffffffffffffffffffffffffffffffff1673ffffffffffffffffffffffffffffffffffffffff168173ffffffffffffffffffffffffffffffffffffffff1614156112ac576040517f08c379a00000000000000000000000000000000000000000000000000000000081526004016112a39061228e565b60405180910390fd5b60038190806001815401808255809150509060018203906000526020600020016000909192909190916101000a81548173ffffffffffffffffffffffffffffffffffffffff021916908373ffffffffffffffffffffffffffffffffffffffff1602179055505050565b600460009054906101000a900473ffffffffffffffffffffffffffffffffffffffff1673ffffffffffffffffffffffffffffffffffffffff163373ffffffffffffffffffffffffffffffffffffffff16146113a5576040517f08c379a000000000000000000000000000000000000000000000000000000000815260040161139c9061226e565b60405180910390fd5b8160006005600083815260200190815260200160002060010180546001816001161561010002031660029004905014158061140b575060006005600083815260200190815260200160002060020180546001816001161561010002031660029004905014155b61144a576040517f08c379a00000000000000000000000000000000000000000000000000000000081526004016114419061226e565b60405180910390fd5b81600560008581526020019081526020016000206001019080519060200190611474929190611c4a565b50505050565b606080600460009054906101000a900473ffffffffffffffffffffffffffffffffffffffff1673ffffffffffffffffffffffffffffffffffffffff163373ffffffffffffffffffffffffffffffffffffffff161461150d576040517f08c379a00000000000000000000000000000000000000000000000000000000081526004016115049061226e565b60405180910390fd5b606060016006540160405190808252806020026020018201604052801561154857816020015b60608152602001906001900390816115335790505b509050606060016006540160405190808252806020026020018201604052801561158657816020015b60608152602001906001900390816115715790505b509050600060065490505b60008111156117a1576000600560008381526020019081526020016000206001018054600181600116156101000203166002900490501480156115fe5750600060056000838152602001908152602001600020600201805460018160011615610100020316600290049050145b1561160857611795565b600560008281526020019081526020016000206001018054600181600116156101000203166002900480601f0160208091040260200160405190810160405280929190818152602001828054600181600116156101000203166002900480156116b25780601f10611687576101008083540402835291602001916116b2565b820191906000526020600020905b81548152906001019060200180831161169557829003601f168201915b50505050508382815181106116c357fe5b6020026020010181905250600560008281526020019081526020016000206002018054600181600116156101000203166002900480601f0160208091040260200160405190810160405280929190818152602001828054600181600116156101000203166002900480156117785780601f1061174d57610100808354040283529160200191611778565b820191906000526020600020905b81548152906001019060200180831161175b57829003601f168201915b505050505082828151811061178957fe5b60200260200101819052505b80600190039050611591565b5081819350935050509091565b600460009054906101000a900473ffffffffffffffffffffffffffffffffffffffff1673ffffffffffffffffffffffffffffffffffffffff163373ffffffffffffffffffffffffffffffffffffffff161461183e576040517f08c379a00000000000000000000000000000000000000000000000000000000081526004016118359061226e565b60405180910390fd5b600080905060008090505b60028054905081101561196f578273ffffffffffffffffffffffffffffffffffffffff166002828154811061187a57fe5b9060005260206000200160009054906101000a900473ffffffffffffffffffffffffffffffffffffffff1673ffffffffffffffffffffffffffffffffffffffff1614156118ca5760019150611962565b811561196157600281815481106118dd57fe5b9060005260206000200160009054906101000a900473ffffffffffffffffffffffffffffffffffffffff166002600183038154811061191857fe5b9060005260206000200160006101000a81548173ffffffffffffffffffffffffffffffffffffffff021916908373ffffffffffffffffffffffffffffffffffffffff1602179055505b5b8080600101915050611849565b50801561198d57600280548091906001900361198b9190611cf6565b505b5050565b6060600460009054906101000a900473ffffffffffffffffffffffffffffffffffffffff1673ffffffffffffffffffffffffffffffffffffffff163373ffffffffffffffffffffffffffffffffffffffff1614611a23576040517f08c379a0000000000000000000000000000000000000000000000000000000008152600401611a1a9061226e565b60405180910390fd5b6003805480602002602001604051908101604052809291908181526020018280548015611aa557602002820191906000526020600020905b8160009054906101000a900473ffffffffffffffffffffffffffffffffffffffff1673ffffffffffffffffffffffffffffffffffffffff1681526020019060010190808311611a5b575b5050505050905090565b6060600460009054906101000a900473ffffffffffffffffffffffffffffffffffffffff1673ffffffffffffffffffffffffffffffffffffffff163373ffffffffffffffffffffffffffffffffffffffff1614611b41576040517f08c379a0000000000000000000000000000000000000000000000000000000008152600401611b389061226e565b60405180910390fd5b60008054600181600116156101000203166002900480601f016020809104026020016040519081016040528092919081815260200182805460018160011615610100020316600290048015611bd75780601f10611bac57610100808354040283529160200191611bd7565b820191906000526020600020905b815481529060010190602001808311611bba57829003601f168201915b5050505050905090565b50805460018160011615610100020316600290046000825580601f10611c075750611c26565b601f016020900490600052602060002090810190611c259190611d22565b5b50565b5080546000825590600052602060002090810190611c479190611d22565b50565b828054600181600116156101000203166002900490600052602060002090601f016020900481019282601f10611c8b57805160ff1916838001178555611cb9565b82800160010185558215611cb9579182015b82811115611cb8578251825591602001919060010190611c9d565b5b509050611cc69190611d22565b5090565b815481835581811115611cf157818360005260206000209182019101611cf09190611d22565b5b505050565b815481835581811115611d1d57818360005260206000209182019101611d1c9190611d22565b5b505050565b611d4491905b80821115611d40576000816000905550600101611d28565b5090565b90565b600081359050611d568161245b565b92915050565b600082601f830112611d6d57600080fd5b8135611d80611d7b826122f6565b6122c9565b91508082526020830160208301858383011115611d9c57600080fd5b611da7838284612408565b50505092915050565b600081359050611dbf81612472565b92915050565b600060208284031215611dd757600080fd5b6000611de584828501611d47565b91505092915050565b60008060408385031215611e0157600080fd5b6000611e0f85828601611d47565b9250506020611e2085828601611db0565b9150509250929050565b60008060408385031215611e3d57600080fd5b600083013567ffffffffffffffff811115611e5757600080fd5b611e6385828601611d5c565b925050602083013567ffffffffffffffff811115611e8057600080fd5b611e8c85828601611d5c565b9150509250929050565b600060208284031215611ea857600080fd5b6000611eb684828501611db0565b91505092915050565b60008060408385031215611ed257600080fd5b6000611ee085828601611db0565b925050602083013567ffffffffffffffff811115611efd57600080fd5b611f0985828601611d5c565b9150509250929050565b6000611f1f8383611f3f565b60208301905092915050565b6000611f378383612069565b905092915050565b611f48816123cc565b82525050565b611f57816123cc565b82525050565b6000611f6882612342565b611f728185612388565b9350611f7d83612322565b8060005b83811015611fae578151611f958882611f13565b9750611fa08361236e565b925050600181019050611f81565b5085935050505092915050565b6000611fc68261234d565b611fd08185612399565b935083602082028501611fe285612332565b8060005b8581101561201e5784840389528151611fff8582611f2b565b945061200a8361237b565b925060208a01995050600181019050611fe6565b50829750879550505050505092915050565b600061203b82612363565b61204581856123bb565b9350612055818560208601612417565b61205e8161244a565b840191505092915050565b600061207482612358565b61207e81856123aa565b935061208e818560208601612417565b6120978161244a565b840191505092915050565b60006120ad82612358565b6120b781856123bb565b93506120c7818560208601612417565b6120d08161244a565b840191505092915050565b60006120e8600c836123bb565b91507f554e415554484f52495a454400000000000000000000000000000000000000006000830152602082019050919050565b60006121286016836123bb565b91507f43414e4e4f5420464f4c4c4f57205553455253454c46000000000000000000006000830152602082019050919050565b612164816123fe565b82525050565b600060208201905061217f6000830184611f4e565b92915050565b6000602082019050818103600083015261219f8184611f5d565b905092915050565b600060408201905081810360008301526121c18185611fbb565b905081810360208301526121d58184611fbb565b90509392505050565b600060208201905081810360008301526121f881846120a2565b905092915050565b6000602082019050818103600083015261221a8184612030565b905092915050565b6000606082019050818103600083015261223c8186612030565b905081810360208301526122508185612030565b905081810360408301526122648184611f5d565b9050949350505050565b60006020820190508181036000830152612287816120db565b9050919050565b600060208201905081810360008301526122a78161211b565b9050919050565b60006020820190506122c3600083018461215b565b92915050565b6000604051905081810181811067ffffffffffffffff821117156122ec57600080fd5b8060405250919050565b600067ffffffffffffffff82111561230d57600080fd5b601f19601f8301169050602081019050919050565b6000819050602082019050919050565b6000819050602082019050919050565b600081519050919050565b600081519050919050565b600081519050919050565b600081519050919050565b6000602082019050919050565b6000602082019050919050565b600082825260208201905092915050565b600082825260208201905092915050565b600082825260208201905092915050565b600082825260208201905092915050565b60006123d7826123de565b9050919050565b600073ffffffffffffffffffffffffffffffffffffffff82169050919050565b6000819050919050565b82818337600083830152505050565b60005b8381101561243557808201518184015260208101905061241a565b83811115612444576000848401525b50505050565b6000601f19601f8301169050919050565b612464816123cc565b811461246f57600080fd5b50565b61247b816123fe565b811461248657600080fd5b5056fea365627a7a723158208d8bdc84c19c4725d187c4293dafa0c1fd977b8578ec6e40caec16470420769a6c6578706572696d656e74616cf564736f6c634300050c0040a365627a7a72315820e7729e23633c11766ad9ffcf6208901c6db575c08eaaff1059f13624f4148d9e6c6578706572696d656e74616cf564736f6c634300050c0040",
  "source": "pragma solidity ^0.5.0;\npragma experimental ABIEncoderV2;\n\nimport './InstaAccount.sol';\n\ncontract InstaContract{\n\t\t\n\tmapping(address => address) accounts;\n\tmapping(string => address) public userMap;\n    \n    string[] username;\n\n    address public admin;\n\n    enum STATE{\n        ACTIVE, INACTIVE\n    }\n    \n    STATE public state;\n\n    event NewPost( address indexed author, uint id);\n    event NewLike( address src, address indexed author, uint id);\n    event NewFollower( address src, address indexed target);\n\n    modifier hasAcc(){\n        require(accounts[msg.sender]!=address(0), \"no account\");\n        _;\n    }\n    \n    modifier adminOnly(){\n        require(msg.sender==admin, 'UNAUTHORIZED');\n        _;\n    }\n    \n    modifier activeOnly(){\n        //require(state==STATE.ACTIVE, 'CONTRACT INACTIVE');\n        _;\n    }\n    \n    constructor() public{\n        admin = msg.sender;\n        state=STATE.INACTIVE;\n    }\n    \n    function activate() external adminOnly(){\n        state=STATE.ACTIVE;\n    }\n    \n    function deactivate() external adminOnly(){\n        state=STATE.INACTIVE;\n    }\n    \n    function getUsers() external view activeOnly() hasAcc() returns(string[] memory){\n        return username;\n    }\n\n    function regUser(string calldata uname) external activeOnly(){\n        require(accounts[msg.sender]==address(0), \"already exists\");\n        userMap[uname]=msg.sender;\n        username.push(uname);\n        InstaAccount acc =  new InstaAccount(uname, address(msg.sender));\n        accounts[msg.sender] = address(acc);\n    }\n    \n    function getUser(address addr) external view activeOnly() hasAcc() returns(address, string memory, address){\n    \taddress a = accounts[addr];\n        require(a!=address(0),'no account');\n        InstaAccount acc = InstaAccount(a);\n        return (addr, acc.u_name(), acc.u_addr());\n    }\n    \n    function post(string calldata tag, string calldata hash) external activeOnly() hasAcc() returns(uint){\n        InstaAccount acc = InstaAccount(accounts[msg.sender]);\n        emit NewPost(msg.sender,acc.post(tag,hash));\n    }\n    \n    function getPost(address addr, uint id)external view activeOnly() hasAcc() returns(string memory, string memory, address[] memory){\n        address a = accounts[addr];\n        require(a!=address(0),'no account');\n        InstaAccount acc = InstaAccount(a);\n        return acc.getPost(id);\n    }\n    \n    function editTag(uint id, string calldata tag) external activeOnly() hasAcc() {\n        InstaAccount acc = InstaAccount(accounts[msg.sender]);\n\t    acc.editTag(id, tag);\n\t}\n\t\n\tfunction deletePost(uint id) external activeOnly() hasAcc() {\n\t    InstaAccount acc = InstaAccount(accounts[msg.sender]);\n\t    acc.deletePost(id);\n\t}\n    \n//     function like(address addr, uint id) external activeOnly() hasAcc(){\n//         address a = accounts[addr];\n//         require(a!=address(0),'no account');\n//         InstaAccount acc = InstaAccount(a);\n// \t    acc.like(msg.sender,id);\n// \t    emit NewLike(msg.sender, addr, id);\n// \t}\n\n    function toggleLike(address addr, uint id) external activeOnly() hasAcc(){\n        address a = accounts[addr];\n        require(a!=address(0),'no account');\n        InstaAccount acc = InstaAccount(a);\n\t    acc.toggleLike(msg.sender,id);\n    }\n    \n    function follow(address addr) external activeOnly() hasAcc(){\n\t    address a = accounts[addr];\n        require(a!=address(0),'no account');\n        InstaAccount follow_acc = InstaAccount(a);\n\t    InstaAccount my_acc = InstaAccount(accounts[msg.sender]);\n\t    my_acc.addfollowing(addr);\n\t    follow_acc.addfollower(msg.sender);\n\t    emit NewFollower(msg.sender, addr);\n\t}\n\t\n    function unFollow(address addr) external activeOnly() hasAcc(){\n\t    address a = accounts[addr];\n        require(a!=address(0),'no account');\n        InstaAccount follow_acc = InstaAccount(a);\n\t    InstaAccount my_acc = InstaAccount(accounts[msg.sender]);\n\t    my_acc.remfollowing(addr);\n\t    follow_acc.remfollower(msg.sender);\n\t}\n\n\tfunction getAllPost(address addr)external view activeOnly() hasAcc() returns(string[] memory, string[] memory){\n\t    address a = accounts[addr];\n        require(a!=address(0),'no account');\n        InstaAccount acc = InstaAccount(a);\n\t    return acc.getAllPost();\n\t}\n\t\n\tfunction getFollowers(address addr)external view activeOnly() hasAcc() returns(address[] memory){\n\t    address a = accounts[addr];\n        require(a!=address(0),'no account');\n        InstaAccount acc = InstaAccount(a);\n\t    return acc.getfollowers();\n\t}\n\t\n\tfunction getFollowing(address addr)external view activeOnly() hasAcc() returns(address[] memory){\n\t    address a = accounts[addr];\n        require(a!=address(0),'no account');\n        InstaAccount acc = InstaAccount(a);\n\t    return acc.getfollowing();\n\t}\n}",
  "sourcePath": "/home/hello/Projects/react/d_insta/contracts/InstaContract.sol",
  "compiler": {
    "name": "solc",
    "version": "0.5.12+commit.7709ece9.Emscripten.clang"
  },
  "schemaVersion": "3.0.20",
  "updatedAt": "2020-01-25T10:59:19.839Z",
  "networkType": "ethereum",
  "devdoc": {
    "methods": {}
  },
  "userdoc": {
    "methods": {}
  }
}